:020000040800F2
:10000000F8050020C1000008811D000857310008D4
:1000100000000000000000000000000000000000E0
:10002000000000000000000000000000811D00082A
:100030000000000000000000811D0008E924000805
:10004000811D0008811D0008811D0008811D000818
:10005000811D0008352400083524000835240008D7
:1000600000000000492400084924000800000000A6
:10007000811D0008811D0008811D0008000000008E
:10008000811D0008811D000800000000811D00087E
:1000900000000000811D0008811D0008811D00086E
:1000A00000000000811D0008811D0008811D00085E
:1000B000811D000800000000811D000800000000F4
:1000C00001F061FE084809490022814201D004C0C4
:1000D000FBE707480749084A814202D008CA08C01E
:1000E000FAE700F043FF00DE500600200008002081
:1000F000F80500204C06002048390008F0B503AF91
:10010000C1B004463020205C2146303102910028E5
:10011000099400D1C0E04B22D10004912146503116
:100120000791264680362546A0350328069600D03E
:10013000FCE0039502990846103025463835097CC5
:10014000C90700D1DDE00B924F490B684F490C699C
:100150002A6869689B1A8C41099C00D2D3E002F09E
:10016000FFF9002601210222052000070A90A06362
:100170000892E26321646664A664E66407980280DC
:1001800028460D4602F044F907980188A06B2A46DC
:1001900002F057FB02F0E4F904200A996165214658
:1001A000583161C16666A666079988832046543037
:1001B00002F020F902F0D4F9AA0206990A810A98FD
:1001C00020676267089AA267E56703220A600595BF
:1001D0004D607434214602F075FA279626962596CE
:1001E00024962396319630960C202F902E962D969D
:1001F0002C960B98C0012B90329633963496244857
:100200002A9028AC20463430282102F0CEFC2996D2
:100210007D200001289002F0CFF90834204602F03A
:1002200049FB032800D98AE2800001A109588F46C2
:100230004102000865030008730300086F0300080B
:1002400028A8011D0CAC5C2520462A4602F075FE4C
:10025000099A1046AC30214614462A4602F06DFE3B
:100260002120C0002018802102F01AFE0020642105
:10027000039A9160D0600699C860064801F0EDFDD0
:10028000049805460A9088E030060020E807002020
:100290000038014006000000032002F0A5F902F03A
:1002A0007DF902F06BF9FD4901200860FC4D002446
:1002B0002C61FC482A9002202990FB48289002F0EB
:1002C0008BF928A802F0C6FA00285DD128AA07CA2F
:1002D000099E3346243307C3F048016828697D220C
:1002E00092008B180346634100D32BE2029B1C74DF
:1002F0008918B1636041F0631846103035463835CF
:1003000034462A6869680123037023686068D41A38
:100310000C46844100D31A46099B1A6000D301465B
:10032000596003200299087041B0F0BD3046183082
:100330002978C90714D0D9490A68D9490B690168D5
:100340004068521A834100D2E6E10395079801887C
:10035000A06B002202F075FA049805460A9097E017
:100360000646D7E11F213E980840059601E008990E
:100370000591299005982890F9480090F9482B217B
:1003800028AAF94B01F0A0FC2890F0480090F04812
:10039000182128AAEF4B01F097FC2120C00020185B
:1003A00005902646B0360298001D0B90204624305A
:1003B0000896019002F076FA606D0799898B02F039
:1003C0003BFA32220028049E00D02E460A9800D024
:1003D00002460024002A20460B9901D0501E12D05C
:1003E0000A90002E25461ED0751E1CD10798018844
:1003F0000998806B012202F024FADD4801F02DFDFE
:100400000B9925460FE0079801880998806B012217
:1004100002F017FAD54801F020FD0B9920460A900A
:10042000002E2546E0D10C700398836801240898BB
:10043000224602F0E9FA411E032910D30028099C44
:10044000069A00D07BE1D0687F2800D97CE10B9927
:100450000978059B1954401CD0600198AAE70B94B9
:10046000069EF0680028099C12D0122813D0C848B4
:1004700001F0E4FC28A8C0490180022101F030FE0F
:10048000F068289028A8042101F02AFE01F0B0FDB0
:100490000020F06081E7B74801F0D0FC28A8B649F9
:1004A000018002210A9101F01BFEF068289028A823
:1004B000042101F015FE8520400020180190FF2046
:1004C0000A30201804900599C81C0324A043401A40
:1004D000089001F08DFD002203E0521C802A00D319
:1004E000D9E005988056002833D40898801A8007F0
:1004F000F3D1782A00D9A0E0203A05988018016A43
:10050000456A0D43134620339C490D4200D089E0D3
:10051000702B00D988E0816AC56A0D4397490D4266
:1005200000D083E0682B00D982E0016B456B0D435E
:1005300092490D427ED1602B7ED8816BC06B0843FF
:100540008E49084200D0A4E02032592AD5D3203267
:1005500073E0C3B28A48C05C042818D0032807D0CF
:10056000022800D0A2E07F2A00D19FE0501C51E079
:100570007F2A00D19AE00498805CE02B16D0ED2B06
:100580001DD16021C94340B2884240DD8EE07F2A00
:1005900000D18BE00498805CF02B0CD0F42B40B29F
:1005A00015D17021C943884218DD7FE0E021084061
:1005B000A0282CD07AE0903830280FD376E0194666
:1005C000E1390C291AD23F21C94340B21DE0F13B69
:1005D000022B6BD83F21C943884267DA7D2A65D850
:1005E000019880564021C94388425FDC7D2A5DD056
:1005F000D01C059A12568A4212DD57E0FE210B40AC
:10060000EE2B53D140B23F21C94388424EDA7E2AB5
:100610004CD2901C059909564022D243914245DCA8
:10062000421C5BE71A460AE0283206E0283206E060
:10063000303202E0303202E03832802A2BD2059884
:1006400080180023C156002919D4D5187F2D22D037
:10065000C1180B9E8E57002E13D47E2D069E1AD0E5
:100660000A9E8E57002E0FD47D2D069E13D009575B
:1006700000290CD41B1DD1188029E3D10BE0D2181E
:100680002CE76A1C069E29E7AA1C069E26E7EA1CA0
:1006900024E73832D3E780200BE0C0463006002044
:1006A000E8070020FF0F00000030004035480590AB
:1006B0001620059931617061334801F0BFFB346940
:1006C000756928A831490180022101F009FD2895AA
:1006D00028A8042101F004FD2046294601F000FD70
:1006E00001F086FC07980188099CA06B012202F0AA
:1006F000A8F8194801681948006900220B46C83358
:10070000034653411ED2039D2A70C831B161504146
:10071000F06118363168706801222A7023686268B7
:10072000CC1A0446944100D31946099B196000D3A2
:100730001046586004200299087041B0F0BD154879
:1007400001F074FE01F0E2FA00F01EFC8C340008A7
:1007500074340008F033000830060020E807002059
:100760009C340008003400082C3400080700000006
:100770000800000009000000030000008080808065
:100780004D360008BC3400080A00000001000000DB
:100790000B000000D438000880B500AF3021024AB9
:1007A00000235354106280BD5006002080B500AF76
:1007B00090B0019002F0F4F9054602F0EDF9A94C71
:1007C000A668002E04D03046A060E80704D005E0FB
:1007D0000320A060E80701D102F0E0F9002E00D06C
:1007E0002EE1A44860612546019C2046FFF7D4FF16
:1007F0002C6102F0D5F9054602F0CEF92668994839
:10080000C6602060E80701D102F0C8F9002E00D1CF
:1008100040BF00200090C04305900198083002902E
:1008200000E020BF02F0BCF9054602F0B5F992499C
:10083000924888600198C860E80707D102F0AEF9D5
:1008400004E00698101A03988441EAD38C480268A1
:100850008948036902980468002C4CD0029E0492D7
:10086000039304E0049A039B3468002C43D003CC28
:10087000083C101A1846884105D2183426463468B8
:10088000002CF4D137E0069602F08AF9054602F012
:1008900083F9A06803260640012E05D0A060E80772
:1008A00007D0012E09D015E002210843A060E80717
:1008B000F7D102F073F9012E0CD1266902F070F91C
:1008C000054602F069F930683460E060E80701D15C
:1008D00002F064F9A069069E306002F061F90546F5
:1008E00002F05AF9A06804218843A060E807B9D152
:1008F00002F054F9B6E702F053F9054602F04CF95C
:100900000198046800990160E80703D102F046F9F4
:1009100000E0069C002C36D02546059820606060DB
:10092000E068069002F03CF9064602F035F9A4684A
:10093000022021468143A960F00701D102F02EF97F
:1009400001200440E5D069692846884703CD059A0F
:1009500051405040083D0843DBD002F021F904909B
:1009600002F01AF9AC68042620463043A8600498C7
:10097000C00701D102F012F93440CAD102990868C7
:10098000A8610D60C5E702980468002C059D0695D6
:1009900038D0059D0695029E1DE006900029049E14
:1009A00005D0183426463468002C14D12AE003956B
:1009B000A069306002F0F4F8054602F0EDF8A06896
:1009C00004218843A060E80701D102F0E7F8039D05
:1009D0003468002C16D0049605CC13462E46059D8F
:1009E0006B40014669401943069B083CC31A1346F5
:1009F000B34102D21546D0D302E032461546CCD3DD
:100A00000698CAE702F0CCF8064602F0C5F81C4882
:100A100006998160C560026817480469501A20462B
:100A20000395A84103D3059815498860C860012043
:100A3000064000D005E7154602F0B0F82A4600E768
:100A400000200B9001200890074907910A900DA8FB
:100A5000099006480E900FA80D9007A8044900F0D1
:100A6000B3FAC04650060020A4310008590F000810
:100A7000E0330008FD000008E8070020A522000878
:100A800030060020F0B503AFA5B004680120049043
:100A9000E007029111D1A00724D4600735D42007C4
:100AA00048D4E0065BD40E684868C568002C6BD15A
:100AB000684907223046A847B6E00E6848680390A8
:100AC000C5685D490C223046A847002807D1A00719
:100AD00012D55A4903223046A847002806D0049868
:100AE00025B0F0BD0E6848680390C56854490B22D4
:100AF0003046A8470028F2D1600710D54F4903229D
:100B00003046A8470028EAD103E00E684868039001
:100B1000C5684C490B223046A8470028DFD1200782
:100B200012D50398C568454903223046A8470028D6
:100B3000D5D103E00E6848680390C56842490D228C
:100B40003046A8470028CAD1E00612D50398C568E8
:100B50003A4903223046A8470028C0D103E00E6876
:100B600048680390C568394909223046A8470028DB
:100B7000B5D11F2084435AD00398C5682F4903225A
:100B80003046A8470028AAD1314902223046A8475A
:100B90000028A4D1812006E05733421F05A8135432
:100BA000240C084636D00F22234613400A2B01D3CB
:100BB000573300E03033811E05AD4B55102C1DD34B
:100BC00023061B0FE5B26D09052D01D3573300E055
:100BD0003033C51E05AEAB55230A14D013400A2B83
:100BE00001D3573300E03033011F05AE8B55230B83
:100BF0000CD013400A2BCFD23033CEE7401E05AACB
:100C00005318014608E005A8431905E005A8431854
:100C1000294601E005A883188120401A00900C495C
:100C20000222029800F0DCF9002800D057E70020EB
:100C30000490049825B0F0BDF0380008E4380008AE
:100C4000FC38000807390008123900081F3900086D
:100C5000E7380008E9380008F0B503AFA5B08B68A5
:100C60009A0105D45A0142D400F04AFE25B0F0BDE5
:100C700002910268012108020B0304930904039105
:100C8000812509E057316C1F05ABE154110C039B22
:100C90009A4235460A4669D30F24114621400A2953
:100CA00001D3573100E03031AE1E05ABF1541109CC
:100CB0005FD021400A2901D3573100E03031EC1ECA
:100CC00005ABE154824251D31105090F0A2901D322
:100CD000573100E030312E1F05ABF15404998A42A0
:100CE0004CD31104090F0A29CCD23031CBE7029141
:100CF0000268012108020B03049309040391812572
:100D000009E037316C1F05ABE154110C039B9A428B
:100D100035460A462AD30F2114460C400A2C01D32B
:100D2000373400E03034AE1E05ABF454140920D043
:100D30000C400A2C01D3373400E03034E91E05ABF7
:100D4000CC5482421ED313051C0F0A2C01D3373416
:100D500000E030342E1F05ABF454049B9A4214D3A8
:100D60001104090F0A29CCD23031CBE705A80319A9
:100D70000EE0681E05A98B19064609E005A883192F
:100D8000264605E005A8431802E005A883190E468B
:100D90008120801B009003490222029800F020F974
:100DA00025B0F0BDE7380008F0B503AF8DB00C46B4
:100DB0000168C0467944097949008F4401321D24F5
:100DC000054641CCF3686249082202900393083C2F
:100DD000984701460120002921D104902D1DA07AB9
:100DE00000063FD4564901220298039B98470028E9
:100DF0005CD004980DB0F0BD03CCCB6852490722FB
:100E000098470DB0F0BD41CCF36849490922054629
:100E10000393083C984701460120002908D00DB0F3
:100E2000F0BD03CCCB684949042298470DB0F0BD12
:100E30000490A07A00060AD4414901222C46284693
:100E4000039DA847002819D004980DB0F0BD39497A
:100E500002222C462846039DA847002816D0049855
:100E60000DB0F0BD019533490222029D2846039B37
:100E70009847002825D004980DB0F0BD2E490F22C8
:100E80002046A84700280498C9D139E005A80121C7
:100E900001700B900A96099409A827490F2200F0C7
:100EA000ABFD002824D004980DB0F0BD28462146A3
:100EB000FFF7E8FD00280498B1D125686068C36891
:100EC0002FE008A80121017007900696059521489A
:100ED0000A9005A80990A068E1680C910B9009A9F7
:100EE0000198FFF7CFFD002810D004980DB0F0BD99
:100EF00009A81249022200F07FFD002804988ED133
:100F0000104901222046A8470DB0F0BD0A98C368D9
:100F100009980A490222984700280498039B00D0A8
:100F20007DE708490122284698470DB0F0BDC0462C
:100F30006B340008833500083C3400088035000815
:100F400082350008D2340008643400085C3400089C
:100F5000543400086835000880B500AF03C9CB6879
:100F600001490422984780BD5C34000880B500AF79
:100F700000F000F880B500AF84B06C46204601F068
:100F800059F92046FFF712FC80B500AF8CB08021E4
:100F900001910090002006900220039007490291E1
:100FA000059008A8049006480B9069460A9109909C
:100FB00001A8089002A8034900F006F8443500088B
:100FC00001190008AC34000880B500AF84B001AA54
:100FD0000123138102910190104601F067F9D4D4E6
:100FE000F0B503AF8BB0694C0A94651C8668354038
:100FF000049301D02B2401E01124240406946B0DEA
:10100000BC681D1933020594089219D40021079178
:101010008489A5422AD3059E0568446808980090F3
:1010200028462146069A079B00F0B6F8002800D013
:1010300079E0E36828460499324698470BB0F0BD42
:101040000024002A0DD00B574022D243934200DDEA
:101050000124089B012B04D00123CB56934200DDD1
:10106000641C079165198489A542D4D2F1010FD47B
:101070000A9931400A91631B7100890F0026354699
:101080007944097949008F443F013D011D463BE009
:1010900081683F4A03910A403E4951188160C16806
:1010A0000291016809904668089800900A910846E4
:1010B0003146069A079B00F06FF80146012000298F
:1010C00041D10890601B002485B2A0B2A84209D289
:1010D000326930210A989047641C0028F5D008989E
:1010E0000BB0F0BDF3680A980499059A9847002858
:1010F000089828D10998039981600299C16000205D
:101100000BB0F0BD99B24D08039301680991446892
:10111000A8B2B1B2814209D2226909980A999047CE
:10112000761C0028F4D001200BB0F0BD0898009088
:10113000099E30462146069A079B00F02DF801468D
:101140000120002901D00BB0F0BD0890E3683046C3
:101150000499059A9847002802D008980BB0F0BD72
:101160000398401B002685B20796B0B2A84209D268
:10117000226909980A999047761C0028F5D00898AA
:101180000BB0F0BD07980BB0F0BDC046FFFF1F00CD
:101190000000E09F30000020F0B503AF81B01C4696
:1011A0000D46112109048A420AD02B6906461146D0
:1011B000984701463046002902D0012001B0F0BD19
:1011C000002C05D0BA68EB682146984701B0F0BD05
:1011D000002001B0F0BD80B500AF00F001F8D4D41C
:1011E00080B500AF8CB001210191009000200690E5
:1011F0000220039007490291059008A80490064830
:101200000B9001A90A9109906846089002A8034929
:10121000FFF7DAFE8437000801190008B03700082C
:10122000F0B503AF8DB016460C9104908068019024
:10123000C000810F00D1B0E2002832D4102E0396F6
:1012400052D2002E00D1E0E10323304618400B902B
:10125000042E00D32BE200210C460B98002800D16D
:10126000D5E10C9A52564023DB439A4200DD641CC0
:10127000012800D1CBE10C9A511801228A569A42DA
:1012800000DD641C022800D1C1E10220085698420A
:1012900000DCBCE1641C04988089844200D2BBE17C
:1012A0007BE20498C089002800D185E10C9DA91932
:1012B0000026024605E0651C2C1BA619521E00D113
:1012C00087E18D4200D17EE12C460023ED56002DB2
:1012D000F1D5EDB2E02D03D3F02D03D3251DEBE7BF
:1012E000A51CE9E7E51CE7E70322D3430C98314648
:1012F000C61C08931E40331A0793CB1A09930B920E
:101300001340002186420A9123D00C98801B089933
:10131000884200D8F8E100210A460C98864218D08D
:101320000C9880564024E543A84200DD491C0798EC
:1013300001280ED00C98801801228256AA4200DDA6
:10134000491C079A022A04D002228056A84200DDD6
:10135000491C002B1ED00998089A0240B2180020A0
:101360000A9010564024E443A04201DD01200A9077
:10137000012B0FD001201056A04202DD0A98401C1C
:101380000A90022B06D002201056A04202DD0A98D5
:10139000401C0A903346099886080A9840180A901B
:1013A000A64913E00025089E079C361BD318280A7F
:1013B000A34A154010404019A24A5043000C0A9A13
:1013C00082180A92099D002D00D00FE1002E00D155
:1013D00005E11A46C02E354600D3C0252B460B9892
:1013E000034009930795AB000896042E0692D9D3C3
:1013F0000593103B1D09681C302B029002D200257A
:10140000164677E003460B9883430025164670681E
:101410008209C043C0091043084032689409D2438E
:10142000D20922430A4052198018B2689409D24363
:10143000D20922430A401018F2689409D243D20913
:1014400022430A40101832699409D243D209224338
:101450000A40101872699409D243D20922430A4003
:101460001018B2699409D243D20922430A401018D5
:10147000F2699409D243D20922430A401018326A11
:101480009409D243D20922430A401018726A94097F
:10149000D243D20922430A401018B26A9409D243B7
:1014A000D20922430A401018F26A9409D243D209A1
:1014B00022430A401018326B9409D243D2092243C6
:1014C0000A401018726B9409D243D20922430A4091
:1014D0001018B26B9409D243D20922430A40101863
:1014E000F26B9409D243D20922430A4015184036C0
:1014F0001B1F8CD10B98029C0440069A059B00D1BF
:1015000051E770688209C043C0091043084032683F
:101510009309D243D2091A430A4052198018B2687B
:101520009309D243D2091A430A401018F26893096A
:10153000D243D2091A430A401518012C39D07069D8
:101540008209C043C0091043084032699309D2435D
:10155000D2091A430A4052198018B2699309D2433A
:10156000D2091A430A401018F2699309D243D209EA
:101570001A430A401518022C1BD0706A8209C04316
:10158000C00910430840326A9309D243D2091A4372
:101590000A4052198018B26A9309D243D2091A43F9
:1015A0000A401018F26A9309D243D2091A430A403A
:1015B0001518069A059BF6E60026841B0498808978
:1015C000844229D3E9E0841A04988089844223D391
:1015D000E3E0C41A0498808984421DD3DDE0039EB1
:1015E0000A9C04988089844216D3D6E0FC200440EB
:1015F000A600069B98598209C043C00910430840C1
:10160000012D00D0A8E0039EB8E0002634460498DF
:101610008089844200D3C0E00396674A01990A405A
:101620000A92021B4800800F002634467844007955
:10163000400087440B01090B144607E0010101013A
:10164000FF00FF000100010090B2440808920498D6
:1016500001680B91456801200990A0B2B1B28142A6
:1016600009D22A690B980A999047761C0028F4D071
:1016700009980DB0F0BDEB680B980C99039A984748
:10168000002802D009980DB0F0BD0898001B002476
:1016900086B20C94A0B2B04233D22A690B980A9950
:1016A0009047641C0028F5D009980DB0F0BD0C20BF
:1016B000304000210C4604E0039E091D884200D101
:1016C000CBE50C9A52564025ED43AA4200DD641C3E
:1016D0000C9A56180122B256AA4207DC0222B256D0
:1016E000AA4208DCF256AA42E6DD08E0641C0222A7
:1016F000B256AA42F6DD641CF256AA42DCDD641C36
:10170000DAE70C980DB0F0BD00210A4602E0121D88
:1017100000D102E60C9880564025ED43A84200DD3A
:10172000491C0C98801801240457AC4208DC0224A0
:101730000457AC4209DC0B9C0057A842E7DD09E0E6
:10174000491C02240457AC42F5DD491C0B9C005790
:10175000A842DCDD491CDAE79B195A689409D24398
:10176000D20922430A401018022D039E06D09A681F
:101770009309D243D2091A430A4010180A9C010A5D
:101780000C4A10401140081809494143080C04193B
:1017900004988089844200D23EE70498016840683A
:1017A000C36808460C99324698470DB0F0BDC04654
:1017B00001000100FF00FF00FFFF1F0080B500AF28
:1017C0000B4606C81846FFF72BFD80BD80B500AF5D
:1017D00002684068C3681046984780BDF0B503AF03
:1017E00089B000240894454B05AD0BC510690490E1
:1017F00000284BD0506900286CD018214143039138
:1018000007214907401E8843401C019094680292BA
:10181000156800266A68002A06D00698C3682968F9
:1018200005989847002863D10498801901890023FE
:1018300000290BD001291A4603D1C168C9006118DB
:101840008A880499895B022905D10CE042890499B0
:10185000895B022907D0012904D14168C9006118B8
:101860008B8800E0438805A9CB818A814269079271
:101870000069C200A058A21852689047002837D1CA
:10188000083518360398B042C4D121E0D06800284A
:1018900020D09468C100651807214907401E88437D
:1018A000401C0190029216687268002A06D00698C1
:1018B000C368316805989847002819D105CC05A957
:1018C000083C9047002813D108360834AC42EBD1CD
:1018D000029A019C506884420DD2E00012681158AF
:1018E000101842680698C36805989847002802D0E7
:1018F000012009B0F0BD002009B0F0BD200000E0DB
:10190000F0B503AF89B003910668F0087D28029610
:101910004BD30A253046344C214601F045FB059057
:101920004443301B049082B2920830484243530C27
:1019300028465D002E494C5D06AA1218111F0C7036
:10194000D11E2B4C6419054664780C7064215943F0
:101950000498401A80B24000254C215C931E1970F7
:1019600020184078511E059A08702D1F2148864284
:101970001646CFD8092A1CD990B280081B4941438A
:10198000490C64204843101A80B24200184B9C5CFA
:10199000A81E2E4606AD2C54AC19641E9A18527817
:1019A0002270029A002A09D10AE00A253246092A41
:1019B000E2D811462846029A002A01D0002907D011
:1019C0000907C90E0A4A51184978401E06AA11543F
:1019D0000A21091A009106A90B1801210022039877
:1019E000FFF7FEFA09B0F0BD102700007B140000DD
:1019F000853500087F969800F0B503AF93B00123BA
:101A000006939B1A029302239B1A01935342059358
:101A10000E91491E03910168089141680791806801
:101A20000D9000252B46294600950A9212E0039856
:101A3000015D0A39484248410E99C9180D9B18703A
:101A40000798C36808989847002833460A9A10995F
:101A500000D000E1E80700D0FAE08A420F9300D2FC
:101A6000DCE00E984418501A0728129422D88A42B3
:101A700000D1EBE005980E4641180023E05C0A28EF
:101A800050D0CD18681C00D3C6E0E41860780A284E
:101A90004ED0A81C00D1BFE0A0780A284BD0E81C8B
:101AA00000D1B9E0E0780A2848D01B1DC818129C64
:101AB000E4D1B1E00C90E61C032004908643321B75
:101AC00026D0E34320469C19331A981E1190D81E45
:101AD000109000231298C05C0A2800D18DE09C422F
:101AE0001BD01298C51868780A282AD011989842F5
:101AF00013D0A8780A2826D0109898420DD0E878FC
:101B00000A2822D01B1D1298C05C0A28E7D174E075
:101B100010910C98083811901DE010910C9808381D
:101B200011902BE031465818411C90426BD30EE0C7
:101B30005B1C314662E09B1C31465FE0DB1C31469A
:101B40005CE05B1C59E09B1C57E0DB1C55E09142BC
:101B50000F9B86D962E030CE41494D403F4B581B28
:101B6000284325464D405D1B25433E490D40054019
:101B7000083E8D4204D10836083211988242EAD9D3
:101B80000C98801A0B9046D01298851805988018EA
:101B900010994018099002988018401811900198E7
:101BA000801840180C90049EAB19D81E00780A28A3
:101BB0001DD01198801903282DD03446981E007826
:101BC0000A2816D00C980019032824D0581E007833
:101BD0000A2810D00B98A0421DD02646285D0A285E
:101BE0000AD0361D099880190328DDD113E0F61EAE
:101BF00002E0A61E00E0661EB3180A9A129C58184E
:101C0000411C9042A3D2E05C0A28A0D100250E46D8
:101C10000C460F9B07E00A9A11460F9B9A42144606
:101C20001E46069D14D010910D980078002808D00B
:101C30000798C368042208980B4998470F9B00280F
:101C400009D1E21A00D0F2E60020F5E61146E5E7F8
:101C5000009813B0F0BD069813B0F0BD000101016B
:101C60000A0A0A0A8080808060340008F0B503AF59
:101C700081B070C8307800280BD0EB680422204671
:101C80000091094998470099002802D0012001B02D
:101C9000F0BD08460A384242424132702A69204665
:101CA000904701B0F0BDC0466034000880B500AF79
:101CB0000A464968012900D000290249FFF78EFD34
:101CC00080BDC0466835000880B500AF8EB0019178
:101CD000009003930292002008900220059008498A
:101CE000049107900AA8069006480D9002A80C904F
:101CF00005480B9068460A9004A8B968FFF764F994
:101D000058350008CD170008BD17000880B500AF92
:101D10008AB02820019009480090002006900120F8
:101D2000039007490291059008A80490054809907E
:101D30006846089002A80449FFF746F98938000868
:101D40004C340008BD170008B438000880B500AF57
:101D500088B001460020049001200190054A0092BD
:101D6000039006A80290044807900448069068462D
:101D7000FFF72AF94C340008BD17000808350008A1
:101D800080B500AFFEE780B500AF80BD80B500AF85
:101D90000846114600F0A4F9002080BD80B500AFD0
:101DA00082B000200190802903D201A80170012196
:101DB0002FE0C80A0AD13F200840803001AA5070A5
:101DC0008809C02101431170022122E0080C0ED1C4
:101DD0003F200840803001AA9070080BE0230343A5
:101DE00013700805800E80305070032111E03F22EF
:101DF0000A40803201A8C2708A0CF023134303709A
:101E00000A05920E803282708903890E80314170FA
:101E1000042101A800F064F9002002B080BDD4D4F0
:101E200080B500AF0A464968012900D0002902495F
:101E3000FFF7D4FC80BDC04694370008D0B502AF90
:101E400082B0044600F08CF801A80480022100F062
:101E500047F9FFF798FF02B0D0BDD0B502AF82B00E
:101E6000044600F07DF801A80480022100F038F952
:101E7000FFF789FF00F0BCF802B0D0BDF0B503AFAA
:101E800083B0029104460020002A11D02569E3683E
:101E9000BFF35F8F0126B1029D4204D9DE43AD1925
:101EA000002D0BD104E0002D04D0CD1A002D05D15A
:101EB00003B0F0BDDD436D18002DF9D0954200D37D
:101EC0001546EE188E4201910DD9C81A009060682F
:101ED000C0180299009A00F0B5FE009802990918FE
:101EE0002A1A606803E06068C01802992A4600F068
:101EF000A9FE0198401E0640BFF35F8FE6602846AA
:101F000003B0F0BDF0B503AF83B0164601229402D2
:101F1000A64200D32646C3689D19BFF35F8FA54232
:101F200002900ED9E21A01924268D0180091019AEB
:101F300000F088FE019800990918321A029840684A
:101F400002E04268D018324600F07CFE601E054078
:101F5000BFF35F8F0298C560304603B0F0BDD4D4A4
:101F6000B0B502AF86B000F01BFE044600F014FED0
:101F70001948017800291FD1012101700A46A243A6
:101F800042708278002A15D1817068460021017064
:101F9000144CE06A03210140022901D0134D00E0F6
:101FA000114D1834694601222046A8470028F9D06F
:101FB00001280ED106B0B0BD00200490012101918E
:101FC0000649009103900420029068460449FEF7F8
:101FD000FBFFFFF700F9C046E8070020E0370008E4
:101FE000E8370008000600207D1E0008051F0008D5
:101FF000F0B503AF87B0344A1078002857D0D078B6
:10200000002832D0072810D20021C943814010791E
:1020100008437F21014001A801702C4CE06A032194
:10202000014002290ED02B4D0DE079308021014373
:1020300001A80170254CE06A0321014002290AD061
:10204000244D09E0224D183401A901222046A84759
:102050000028F9D007E01E4D183401A901222046BE
:10206000A8470028F9D001281FD101A80026067032
:10207000164CE06A03210140022901D0154D00E011
:10208000134D183401A901222046A8470028F9D091
:1020900001280AD10C490E71CE7048780E700128C3
:1020A00001D100F07BFD07B0F0BDFFF794F80020F0
:1020B00005900121029108490191049004200390A8
:1020C00001A80649FEF780FFE8070020000600206F
:1020D0007D1E0008051F0008143800081C38000881
:1020E000F0B503AF87B0002900D196E0044646184A
:1020F0004C48C07801960AE0012800D08FE000200B
:1021000048490871C870641CB44200D185E0217848
:10211000C2B2072A18D200294AD002A80170424848
:10212000C06A032101400229404D00D0404D3E4885
:10213000183002A90122A8470028F8D001286ED142
:10214000384A1179D0783AE0002951D005A80170B9
:102150003548C06A0321009108400228334E00D060
:10216000334E314D183505A901222846B0470028C5
:10217000F7D0012853D12B49C878401CC870C1B290
:102180008629019EBFD106A8FF2101702648C06A9A
:10219000009908400228254E00D0254E06A90122AC
:1021A0002846B0470028F9D0012838D1019EA6E77B
:1021B000012393401B49097919431A4A1171401CA4
:1021C000D070C2B2072A9ED10A069CD003A8017023
:1021D0001548C06A032101400229144D00D0144D56
:1021E0001148183003A90122A8470028F8D083E736
:1021F00079308021014304A801700B48C06A032193
:1022000001400229094D00D0094D0748183004A9A2
:102210000122A8470028F8D06EE707B0F0BDFEF70E
:10222000DAFFC046E8070020000600207D1E0008F7
:10223000051F000880B500AF8AB011490A78BFF3C6
:102240005F8F002A0AD1BFF35F8F01220A7000213D
:102250000173CA4306C001600AB080BD002005902A
:102260000120029007490191049007A803900648B5
:10227000089009A8079001A80449FEF7A5FEC046EA
:10228000E007002068380008912200087038000834
:1022900080B500AF03C9CB6801490922984780BDCA
:1022A0008038000880B500AF40BF80BD80B500AF6A
:1022B0008CB0054600F070FC16480178002926D144
:1022C0000124047000951448FFF7B8FD03A81349D2
:1022D00001800221FFF704FF114802906846019037
:1022E0000020079004940F480390069409A80590D5
:1022F0000D480A9001A809900BA80C4903AAFFF702
:102300006DFA0B482146FFF7EBFEFFF771FE00F078
:1023100011F8C046D80700200500000002000000A8
:10232000C43800084C340008CD1700089437000862
:10233000AC37000880B500AF00F035FCF0B503AF56
:1023400091B000680268019245680E684C68E368C5
:1023500023490C223046029398470121002821D1BD
:10236000009168680A90286809900020079003206F
:1023700004901C49039106900BA805901A481090F0
:1023800029460C310F910E9008350D9517480C9089
:1023900009A80B9003AA30462146FFF71FFA002830
:1023A00003D00099084611B0F0BD11490222304611
:1023B000029B984700280099F4D10BA8019D0ECDEF
:1023C0000EC00ECD0EC00C98012800D000280BAA1C
:1023D00030462146FFF702FA0146084611B0F0BD2B
:1023E000EC340008D434000801190008BD170008B7
:1023F000F834000880B500AF012100220323826079
:10240000C16003610268011D104600F05BF980BDE8
:1024100080B500AF0021012202238260C160036108
:102420000268011D104600F04DF980BD80B500AF77
:10243000FFF78CFC80B500AF01480249016080BD08
:102440000C180240FFFF000080B500AF00F002F85A
:1024500080BDD4D4B0B502AF86B01F480068C107B4
:1024600016D1C10616D4C00516D41C48FFF7E6FCE9
:1024700068461B4901800221FFF732FE01A80021B6
:1024800001700121FFF72CFEFFF7B2FD06B0B0BDD1
:10249000002502E0012500E002251048FFF7CEFCF0
:1024A00002A80F49018002242146FFF719FE03A864
:1024B00001210170FFF714FE04A80A49018021469A
:1024C000FFF70EFE059505A80421FFF709FEFFF7AB
:1024D0008FFD06B0B0BDC0460000024060010000A4
:1024E0000400000003000000F0B503AF83B000F06B
:1024F000A1F8194D2868401C05D100202860174814
:102500000169491C01612868401C286000F048FBF3
:10251000029000F041FBAB68E86801902E680F481C
:1025200000690021721C48410126029C2640D21AF3
:10253000019A904103D2002E0AD003B0F0BDC843E7
:10254000A860E86005488168C0688847002EF4D11B
:1025500000F024FB03B0F0BD30060020E8070020A7
:1025600081B00548016801221143016000681040F4
:102570000090009801B070473410024081B00120F3
:10258000000705490A6802430A6009680140009192
:10259000009801B07047C0463C10024081B0054829
:1025A000016801221143016000681040009000980A
:1025B00001B070474010024081B0012080030549FE
:1025C0000A6802430A60096801400091009801B05E
:1025D0007047C046401002400248016801220A4389
:1025E0000260704760100240F0B503AF81B00F4E3B
:1025F00071680124002916D005467D20C00000F036
:10260000D3FC01460A48006800F0CEFC00F040F818
:10261000032D08D8002806D10024E043294622468D
:1026200000F01AF83560204601B0F0BD40060020E9
:10263000480600200348406803490A6810180860EB
:102640007047C04640060020FC0700200148006893
:102650007047C046FC070020002805D4032203462B
:102660009343094A9A1803E00C220240074BD21800
:102670008007C00E8901C9B28140FF2383401068E2
:10268000984308431060704700E400E014ED00E058
:10269000401E010E01D0012070470749074A5060D3
:1026A000074803680B40032189075918016000207F
:1026B0009060072111607047FFFFFF0010E000E00D
:1026C00020ED00E0F0B503AF89B007900B68002B58
:1026D00000D1A7E05448079C844201D0022000E0CA
:1026E00001200522120700269442009600D0009097
:1026F000324608963446029111E02A434B48426024
:10270000049A641C0B681846E040361D08322546C2
:10271000089CA41C08942C46002800D182E00120CB
:102720000546A5402B40ECD00694049205960393F1
:102730004E6810233343122B11D11C21059A1140EE
:102740000F238B40069AD2089200079CA218146AA5
:102750009C43029E33698B402343136276680323B4
:1027600032461A4008998A4001938B4007990C68B9
:102770009C43144307990C60079CDB43122E02997B
:1027800012D8B0402B4A10420ED0A0681840CA6838
:10279000089CA240079C0243A2603009069A904020
:1027A0006268AA4302436260E06818408A68089B36
:1027B0009A400243E260F000039D059E049A069C45
:1027C0009FD51820104022460F248440019B9A4335
:1027D000164B9A18136EA343009C84401C43146646
:1027E000134803684868C20301D52B4300E0AB439C
:1027F000069C0F4A13605368820301D52B4300E007
:10280000AB430B4A5360094A1368C20201D52B43FC
:1028100000E0AB43054A13605268800200D56CE7C4
:10282000AA436BE709B0F0BD000400500018024055
:10283000801802400600060000690840411E8841D9
:102840007047002A02D018228150704728228150F8
:102850007047D4D4B0B502AF002817D00446006842
:102860000D4901600D49016061684160A1688160A6
:10287000FFF7ECFE05462068C168002908D0FFF785
:10288000E5FE401B3028F6D90320B0BD0120B0BDC5
:10289000034901600020B0BDCCCC000055550000BC
:1028A000AAAA000000680249016000207047C046E3
:1028B000AAAA0000F0B503AF81B000283AD00446C0
:1028C000806C002804D100206064204600F035F8B8
:1028D0002420A064012675032068C168A943C16053
:1028E000204600F02BF82021605C4006206810D5BF
:1028F0003203436993430095656A2B4343619542D4
:10290000009D06D10322520343699343A26A1A43EE
:102910004261F202036993430361426908239A43C7
:102920004261C2682A43C26000202065A164E1645C
:1029300001B0F0BD012001B0F0BD7047F0B503AFAC
:1029400081B0044601214A03006803699343E268A9
:102950001A4302612269C368284D1D40A3681343CE
:1029600062691A432A43C260CD024169A943E669FC
:10297000314341610321090242698A43A16911433C
:10298000416100F0F5F80146192048436168AE4204
:1029900016D1490000F008FB05466426314600F0D8
:1029A00003FB0090174941434819C00032303146BB
:1029B00000F0FAFA0721014040001F22120113E043
:1029C000890000F0F1FA05466426314600F0ECFA81
:1029D00000900B494143481900013230314600F064
:1029E000E3FA0F210140F022024000980001101884
:1029F00040182168886001B0F0BDC046F3E9FFFFD0
:102A00009CFFFF0F9CFFFF1FF0B503AF85B016467C
:102A10000446C06C0222202814D10120002900D1D4
:102A2000A1E00493002E00D19DE001231D03A068C6
:102A3000A8420AD1C80708D02069002805D1184645
:102A400005B0F0BD104605B0F0BD606C0128104621
:102A500000D188E00291002001902065009363641A
:102A60002220E064FFF7F2FD039066872687A068C6
:102A7000A84202D12069002803D0029D01990A468C
:102A800002E00025029A0199608F00280846009B09
:102A900066D0364E0498002849D0401C2CD00292B3
:102AA00020680168890608D4FFF7D0FD0399411A10
:102AB0002068049A9142F4D945E04068002D02D084
:102AC00028706D1C05E0304002990880891C029135
:102AD0000025608F401E6087608F0028E0D101993B
:102AE00008463DE030401080921C0025608F401E5B
:102AF0006087608F0028F2D020680168890608D4BA
:102B00000168890605D40168890602D4016889062E
:102B1000F3D54068002DE5D028706D1CE6E72870DD
:102B20006D1C608F401E6087608F0028D7D02068A2
:102B30000168890608D54068002DF0D1304010802A
:102B4000921C0025EDE7009B0D214901C2688A43D4
:102B5000C2604169994341612020A064032001992A
:102B600061642021E16405B0F0BDC046FF010000B2
:102B70000648006806490968890A1C220A40054976
:102B800089581F220A40D0407047C046480600209E
:102B9000081002402839000872B6704762B67047C4
:102BA000EFF31080704700DEFEDEF0B503AF0429BE
:102BB00011D30C1F0C2525400C2D12D000260246E7
:102BC00040C223079B0F23460DD04660042D05D13C
:102BD0000839083005E00B4602460FE086600C39E4
:102BE0000C3002460B460C2C08D3002010605060BD
:102BF0009060D0601032103B032BF6D8D018824280
:102C00001AD203241C40591E002C0BD00023137031
:102C1000012C03D1521C032906D20DE05370022C63
:102C20000BD1921C032907D30021D17091705170F0
:102C30001170121D8242F7D1F0BD9370D21C03298E
:102C4000F2D2F9E780B500AF00F001F880BDF0B531
:102C500003AF8FB0102A15D30B924242032308937F
:102C60001A4085180A90A8422AD2541E002A0A98AF
:102C700006460B4616D00B780370012A07D14B1C71
:102C8000461C0FE003469C18A34241D362E04B78F8
:102C90004370022A02D18B1C861C03E08B78837060
:102CA000CB1CC61C032C0BD31C7834705C7874705E
:102CB0009C78B470DC78F4701B1D361DAE42F3D1E5
:102CC0000B98801A0B90089CA0432B188E1809961D
:102CD0002640079047D19D420B9A099E11D231465A
:102CE000086801C59D420CD2486801C59D4208D2C2
:102CF000886801C59D4204D2C86801C510319D4253
:102D0000EED32240079831180A989C18A34221D28A
:102D100003251540521E002D0ED00E781E70012D79
:102D200004D1491C5B1C032A08D213E04E785E7064
:102D3000022D11D1891C9B1C032A0BD30A781A700F
:102D40004A785A708A789A70CA78DA70091D1B1D01
:102D5000A342F3D10FB0F0BD8D789D70C91CDB1C70
:102D6000032AEBD2F6E7002406940E940EACA419C5
:102D700005940424A41B0494E407009606D0099C3F
:102D80002478059E3470009E01240694049CA407B8
:102D900008D5099C0492069AA45A059E069AB45234
:102DA000049A009EF40003940E9C06942C1D9C42F1
:102DB00036D2744209190591039D694218240C40CA
:102DC00002940A9904912946069CCC4006940599E0
:102DD0008918019149680C46029DAC40069D2C4320
:102DE000049DAC50AD182C4608349C421CD2039C68
:102DF000E140019CA46806940195029DAC400C43FF
:102E000001994C600499083104918D18291D059C85
:102E10000834059499420399D6D30598801801E0A7
:102E20000998801B059004E00198001D05902D1D58
:102E300006910DA80021049001700CA80170012ECC
:102E40000E460C4602910B9A09D0059C60792679B2
:102E50000DAC26700402022002900CA80490099880
:102E6000C0070AD00598001D0299405C04990870BB
:102E70000DA806780CA80078010405960398404236
:102E800004901826049806400C4305990C43B4405E
:102E900006990398C14021432960089C099E30E7A8
:102EA000F0B503AF042911D30C1F0C2525400C2DC0
:102EB00012D00026024640C223079B0F23460DD0A6
:102EC0004660042D05D10839083005E00B4602465E
:102ED0000FE086600C390C3002460B460C2C08D3F0
:102EE0000020106050609060D0601032103B032BC7
:102EF000F6D8D01882421AD203241C40591E002C46
:102F00000BD000231370012C03D1521C032906D2CD
:102F10000DE05370022C0BD1921C032907D3002122
:102F2000D170917051701170121D8242F7D1F0BDB5
:102F30009370D21C0329F2D2F9E7F0B503AF81B048
:102F4000042A2DD3131F0C251D400C2D19D00092DF
:102F50000E4604C9044604C01A07920F1A4610D040
:102F6000314672686260042D04D1009A083A083133
:102F7000083405E08A68A260009A0C3A0C310C34DF
:102F800020460C2B0CD30B6803604B6843608B68A6
:102F90008360CB68C36010311030103A032AF2D836
:102FA000FFF755FE01B0F0BD80B500AF00F001F8AD
:102FB00080BDF0B503AF83B00246884203D2002043
:102FC000114603B0F0BD130C012500249942284698
:102FD0002ED8029016462FD9300A814230D9284681
:102FE00031D801903009814232D92B4633D8B0080C
:102FF000814234D9284635D87608B1422E4600D9C8
:103000002646400000909B00029804010198C000F1
:103010000019C018009BC01883199D400C469C40A5
:10302000161B8E4224D232462846114603B0F0BD0C
:10303000204602901646CFD81E46300A8142CED88E
:1030400006462846CDD92046019030098142CCD889
:1030500006462B46CBD92346B0088142CAD806463D
:103060002846C9D920467608B1422E46C8D8C8E7B6
:10307000002C03D42946284632461AE05B1E1F2046
:103080001840012282400292640800200190321B05
:10309000002A06DB029807DB28438A4202998FD375
:1030A00007E032460298F7DA019828438A420299EB
:1030B00086D3491E002B0BD003261E400AD0550094
:1030C0002A1B521C00D41546012E06D15A1E13E0AD
:1030D000154613E015461A460EE06D002A1B521CD9
:1030E00000D41546022E01D19A1E05E06D002A1B60
:1030F000521C00D41546DA1E042B0AD21F2213409C
:103100002A46DA4029400843114603B0F0BD121F99
:10311000F4D06D002E1B761C0CD56D002E1B761C7A
:103120000DD56D002E1B761C0ED56D002E1B761C4A
:10313000EDD40EE035466D002E1B761CF1D43546DD
:103140006D002E1B761CF0D435466D002E1B761CB0
:10315000DDD43546DBE770460421084202D1EFF3A7
:10316000088003E0EFF3098000E0D4D480B500AF1D
:0C31700001491820ABBEFCE72300020060
:10317C00756E77726170206F66206073656C662E59
:10318C00737061776E28746F6B656E296020666151
:10319C00696C65643A2000007C3100082600000050
:1031AC002F686F6D652F63657267616E2F2E63617B
:1031BC0072676F2F72656769737472792F7372639C
:1031CC002F696E6465782E6372617465732E696FF6
:1031DC002D313934396366386336623562353537AB
:1031EC00662F6465666D742D7274742D302E342EBA
:1031FC00322F7372632F6C69622E7273002F686F9B
:10320C006D652F63657267616E2F6769746875628F
:10321C005F70726A2F707933322D62696E642D681B
:10322C00616C2F7372632F6373646B5F68616C2EB8
:10323C007273007372632F6D61696E2E7273002F3F
:10324C00686F6D652F63657267616E2F2E63617297
:10325C00676F2F72656769737472792F7372632F3E
:10326C00696E6465782E6372617465732E696F2D57
:10327C0031393439636638633662356235353766D1
:10328C002F6465666D742D7274742D302E342E324D
:10329C002F7372632F6368616E6E656C2E72730090
:1032AC002F686F6D652F63657267616E2F2E63617A
:1032BC0072676F2F72656769737472792F7372639B
:1032CC002F696E6465782E6372617465732E696FF5
:1032DC002D313934396366386336623562353537AA
:1032EC00662F656D62617373792D6578656375748E
:1032FC006F722D302E362E332F7372632F737061D5
:10330C00776E65722E7273002F686F6D652F636513
:10331C007267616E2F2E636172676F2F72656769BA
:10332C00737472792F7372632F696E6465782E6370
:10333C0072617465732E696F2D3139343963663857
:10334C006336623562353537662F656D626173732E
:10335C00792D74696D652D302E332E322F73726377
:10336C002F696E7374616E742E7273002F686F6D9B
:10337C00652F63657267616E2F2E636172676F2FA5
:10338C0072656769737472792F7372632F696E64D7
:10339C0065782E6372617465732E696F2D313934C3
:1033AC00396366386336623562353537662F656D3D
:1033BC0062617373792D6578656375746F722D30E6
:1033CC002E362E332F7372632F7261772F6D6F64CD
:1033DC002E727300AC320008670000008000000001
:1033EC0009000000000000000400000004000000C0
:1033FC00590C000863616C6C6564206052657375D0
:10340C006C743A3A756E77726170282960206F6E11
:10341C0020616E2060457272602076616C7565006B
:10342C00000000000800000004000000A90D0008C6
:10343C00496E76616C6964496E7374616E63650084
:10344C00010000000000000048616C4572726F7250
:10345C00427573792020202054696D656F75745501
:10346C00736572496E7075744957444720646F6573
:10347C0073206E6F7420696E6974616C697A652152
:10348C003F3200080B0000002D0000003800000047
:10349C003F3200080B0000003F0000003D00000020
:1034AC003F3200080B0000006A0000001100000011
:1034BC00556E6578706563746564205554462D3877
:1034CC0020646174612E293A0100000000000000A4
:1034DC00D334000801000000D334000801000000C0
:1034EC0070616E69636B6564206174203A0A65785B
:1034FC00706C696369742070616E6963FA340008DA
:10350C000E000000696E646578206F7574206F661C
:10351C0020626F756E64733A20746865206C656EFA
:10352C0020697320206275742074686520696E644C
:10353C006578206973200000103500082000000019
:10354C0030350008120000003A2000000100000095
:10355C0000000000543500080200000000000000CC
:10356C000C00000004000000F91900086D1C000894
:10357C00AD1C00082C0A28280A303030313032308B
:10358C003330343035303630373038303931303103
:10359C0031313231333134313531363137313831F3
:1035AC0039323032313232323332343235323632E1
:1035BC0037323832393330333133323333333433C7
:1035CC0035333633373338333934303431343234AD
:1035DC003334343435343634373438343935303593
:1035EC003135323533353435353536353735383583
:1035FC003936303631363236333634363536363671
:10360C003736383639373037313732373337343756
:10361C00353736373737383739383038313832383C
:10362C003338343835383638373838383939303922
:10363C003139323933393439353936393739383912
:10364C003901010101010101010101010101010126
:10365C00010101010101010101010101010101014E
:10366C00010101010101010101010101010101013E
:10367C00010101010101010101010101010101012E
:10368C00010101010101010101010101010101011E
:10369C00010101010101010101010101010101010E
:1036AC0001010101010101010101010101010101FE
:1036BC0001010101010101010101010101010101EE
:1036CC0001000000000000000000000000000000ED
:1036DC0000000000000000000000000000000000DE
:1036EC0000000000000000000000000000000000CE
:1036FC0000000000000000000000000000000000BE
:10370C000000000202020202020202020202020293
:10371C00020202020202020202020202020202027D
:10372C00020303030303030303030303030303035E
:10373C000304040404040000000000000000000066
:10374C000072616E676520737461727420696E64B7
:10375C00657820206F7574206F662072616E6765C6
:10376C0020666F7220736C696365206F66206C65D0
:10377C006E677468200000004D37000812000000CE
:10378C005F3700082200000000000000000000006D
:10379C00010000008D1D00089D1D0008211E000861
:1037AC00FF0000004B320008600000002600000003
:1037BC001F0000006465666D74206C6F676765722E
:1037CC002074616B656E207265656E7472616E74C7
:1037DC006C790000C03700081E000000AC310008F6
:1037EC005C0000008B0000000D0000006465666D3D
:1037FC00742072656C65617365206F7574206F66DB
:10380C0020636F6E74657874F83700081C00000034
:10381C00AC3100085C000000C00000000D0000008E
:10382C00756E77726170206F662060656D62617372
:10383C0073795F74696D655F6472697665723A3A23
:10384C00616C6C6F636174655F616C61726D28296A
:10385C0060206661696C65643A2000002C380008B1
:10386C003A000000783300086700000049010000AE
:10387C001E0000004E6F6E654572726F726F76653A
:10388C0072666C6F77207768656E20616464696E10
:10389C0067206475726174696F6E20746F20696E35
:1038AC007374616E74000000143300086300000030
:1038BC007C0000000E00000000000000040000006E
:1038CC00040000003D230008093200083500000008
:1038DC001D0000000E000000207C20307828656D53
:1038EC00707479295041524954595F4552524F5284
:1038FC004E4F4953455F4552524F524652414D45EA
:10390C005F4552524F524F56455252554E5F45529B
:10391C00524F52444D415F4552524F5200000000ED
:10392C00000000000000000000000000010000008A
:0C393C0002000000030000000400000076
:103948006465666D74000000534547474552205230
:1039580054540000000000000100000000000000B6
:10396800F805002000080020000400000000000006
:10397800000000000100000001000000000000003D
:10398800FFFFFFFFFFFFFFFF040000000100000032
:0439980000127A009F
:04000005080000C12E
:00000001FF
