:020000040800F2
:1000000070060020C1000008A51A0008E12E0008B3
:1000100000000000000000000000000000000000E0
:10002000000000000000000000000000A51A000809
:100030000000000000000000A51A0008CD21000803
:10004000A51A0008A51A0008A51A0008A51A000894
:10005000A51A000819210008192100081921000813
:10006000000000002D2100082D21000800000000E4
:10007000A51A0008A51A0008A51A0008000000002B
:10008000A51A0008A51A000800000000A51A00081B
:1000900000000000A51A0008A51A0008A51A00080B
:1000A00000000000A51A0008A51A0008A51A0008FB
:1000B000A51A000800000000A51A000800000000B2
:1000C00001F0F3FC084809490022814201D004C034
:1000D000FBE707480749084A814202D008CA08C01E
:1000E000FAE700F0D1FD00DEC8060020000800207D
:1000F00070060020C4060020B8360008F0B503AF33
:10010000BFB00146872040000C1860780D4680354E
:100110000E46A0360A46E03200280992049405955E
:10012000069115D0287AC00700D128E201966448CC
:1001300002686448036929686868521A834100D2DA
:100140001FE2A869E969069E884200DBF8E0FFE14A
:100150000C46C0340320039002F0B0F802F090F88F
:1001600002F07EF8564801210891016055480025AB
:10017000056102F067F8022107913183052000072D
:10018000029003C6089830607560B560F560083E5F
:10019000304601F0AFFF02F055F808998802A082BE
:1001A0000196029AF261206007986060A16003984E
:1001B000E06021610E461046214602F0EDF802F0A3
:1001C00041F80420029AA261E06109990882079827
:1001D00041C1039808604E60069E3146DC311046EE
:1001E00002F0DAF8259524952395229521952F95EF
:1001F0002E950C202D902C952B952A954B20C001E7
:100200002990309531953295EF48289026AC2046BC
:100210003430282102F0DBFB27957D200001269059
:1002200002F03CF80834204602F079F9032800D99E
:10023000BEE1800001A10958089A8F464D020008CE
:10024000C9020008D5020008D302000826980890C9
:1002500026A8011D0AAC5C2520462A4602F032FD84
:10026000089830623046243021462A4602F02AFDA2
:10027000336A30462830D749092202F0FBF90328B7
:1002800000D995E10121800002A21258049C099D29
:100290009746C046A5020008E3020008EF020008E6
:1002A000ED020008FC20002131500A233362716204
:1002B00069613046FC30018241608160C1601DE0AF
:1002C000A8060020E80700201F213C9808402A4685
:1002D00000E0079A2790269226A8BC49BC4A01F064
:1002E00081FBB16F1F200840002100E00221279010
:1002F000269126A8B549B84A01F074FB002525705F
:10030000304628300122214602F090FA411E03298E
:1003100018D2099D6869002810D0B04801F020FC6F
:1003200026A8AF490180022101F05AFD6869269094
:1003300026A8042101F054FD01F0DAFC00206861D8
:10034000336ADBE7002800D032E1099A50691128AE
:1003500000D932E121783346FC331954401C5061F6
:100360001228EDD19F481C4601F0FAFB26A89C49B3
:100370000180022101F034FD09984069269026A8E9
:10038000042101F02DFDE01C032188430894001B8B
:10039000079001F0ADFC3046FE3002903046FD3053
:1003A000039003E06D1C122D00D3A8E0089A50576B
:1003B00000280ED40798401B8007F3D10A2D41D89E
:1003C0005059511949680143874801422DD02B46A5
:1003D0003BE0C3B28548C05C042818D0032807D08E
:1003E000022800D08EE0112D00D38BE0681C63E062
:1003F000112D00D386E00398405DE02B44D0ED2B17
:1004000040B24AD16021C943884252DD7AE0112DC1
:1004100078D20398405DF02B3BD0F42B40B251D101
:100420007021C943884254DD6CE02B460833022D0D
:1004300009D8D058D118496801436B48014204D10A
:10044000102005432B46112B59D8F21800255119BD
:10045000FC20085600284CD4581911284FD0FD24F0
:100460000C57002C43D4102849D0FE240C57002CE4
:1004700041D40F2843D0FF24095700293DD42D1D16
:1004800058191228E3D13AE0E0210840A02810D002
:1004900038E0903830281CD334E01946E1390C2973
:1004A00003D3FE210B40EE2B2CD13F21C9438842C0
:1004B00028DA102D26D0A81C11564022D243914292
:1004C00015DD1FE0F13B022B1CD83F21C9438842B8
:1004D00018DA102D16D0029840574021C94388429F
:1004E00010DC0E2D0ED8E81C12568A420ADC451C80
:1004F00059E75D1957E7851C55E7C51C53E71220DE
:10050000089901E03A491620059D2961686139483A
:1005100001F026FB286908906C6926A836490180FD
:10052000022101F05DFC269426A8042101F058FC6C
:100530000898214601F054FC01F0DAFB0621002066
:10054000A861E961099A5061049C884200DBF7E6E2
:10055000401C059DA86101990868098B01F0D6FF30
:10056000174801681748006900220B461E330346EE
:10057000534120D22A721E31296050416860296897
:10058000686801222A7203226270069D2B686A68DD
:10059000CC1A0446944105D31946296004D26860F8
:1005A0003FB0F0BD2960FAD3104668603FB0F0BD9F
:1005B000124801F0ADFD01F03BFA00F073FBC046BC
:1005C000A8060020E8070020003801407831000824
:1005D000EC310008FC310008083200080800000077
:1005E000030000000600000080808080B93300080E
:1005F0002832000807000000010000004036000813
:1006000080B500AFF821034A5050FF201030002180
:10061000115480BDC806002080B500AF90B0019095
:1006200002F0D0F9054602F0C9F9A94CA668002EDF
:1006300004D03046A060E80704D005E00320A060A5
:10064000E80701D102F0BCF9002E00D02EE1A44849
:1006500060612546019C2046FFF7D2FF2C6102F025
:10066000B1F9054602F0AAF926689948C6602060EB
:10067000E80701D102F0A4F9002E00D140BF00200C
:100680000090C043059001980830029000E020BF20
:1006900002F098F9054602F091F992499248886073
:1006A0000198C860E80707D102F08AF904E00698CB
:1006B000101A03988441EAD38C4802688948036978
:1006C00002980468002C4CD0029E0492039304E02C
:1006D000049A039B3468002C43D003CC083C101AC6
:1006E0001846884105D2183426463468002CF4D1C7
:1006F00037E0069602F066F9054602F05FF9A06859
:1007000003260640012E05D0A060E80707D0012E81
:1007100009D015E002210843A060E807F7D102F0F4
:100720004FF9012E0CD1266902F04CF9054602F072
:1007300045F930683460E060E80701D102F040F923
:10074000A069069E306002F03DF9054602F036F9D8
:10075000A06804218843A060E807B9D102F030F90D
:10076000B6E702F02FF9054602F028F9019804686F
:1007700000990160E80703D102F022F900E0069C2D
:10078000002C36D02546059820606060E068069011
:1007900002F018F9064602F011F9A4680220214679
:1007A0008143A960F00701D102F00AF90120044059
:1007B000E5D069692846884703CD059A51405040E5
:1007C000083D0843DBD002F0FDF8049002F0F6F893
:1007D000AC68042620463043A8600498C00701D1C5
:1007E00002F0EEF83440CAD102990868A8610D60A1
:1007F000C5E702980468002C059D069538D0059D34
:100800000695029E1DE006900029049E05D018342E
:1008100026463468002C14D12AE00395A069306084
:1008200002F0D0F8054602F0C9F8A0680421884318
:10083000A060E80701D102F0C3F8039D3468002CE2
:1008400016D0049605CC13462E46059D6B400146F6
:1008500069401943069B083CC31A1346B34102D2B0
:100860001546D0D302E032461546CCD30698CAE7E7
:1008700002F0A8F8064602F0A1F81C48069981602B
:10088000C560026817480469501A20460395A841BC
:1008900003D3059815498860C8600120064000D040
:1008A00005E7154602F08CF82A4600E700200B9079
:1008B00001200890074907910A900DA80990064861
:1008C0000E900FA80D9007A8044900F00BFAC0463F
:1008D000C80600202C2F0008750C0008683100089D
:1008E000FD000008E8070020A51F0008A80600205A
:1008F000F0B503AFA5B0046801200490E0070291B1
:1009000011D1A00724D4600735D4200748D4E006CD
:100910005BD40E684868C568002C6BD16849072213
:100920003046A847B6E00E6848680390C5685D4940
:100930000C223046A847002807D1A00712D55A49F3
:1009400003223046A847002806D0049825B0F0BD01
:100950000E6848680390C56854490B223046A84782
:100960000028F2D1600710D54F4903223046A8472E
:100970000028EAD103E00E6848680390C5684C4936
:100980000B223046A8470028DFD1200712D5039854
:10099000C568454903223046A8470028D5D103E061
:1009A0000E6848680390C56842490D223046A84742
:1009B0000028CAD1E00612D50398C5683A49032237
:1009C0003046A8470028C0D103E00E68486803906D
:1009D000C568394909223046A8470028B5D11F20EB
:1009E00084435AD00398C5682F4903223046A8474C
:1009F0000028AAD1314902223046A8470028A4D1B4
:100A0000812006E05733421F05A81354240C0846E2
:100A100036D00F22234613400A2B01D3573300E070
:100A20003033811E05AD4B55102C1DD323061B0FF3
:100A3000E5B26D09052D01D3573300E03033C51EF3
:100A400005AEAB55230A14D013400A2B01D35733FC
:100A500000E03033011F05AE8B55230B0CD0134043
:100A60000A2BCFD23033CEE7401E05AA53180146D9
:100A700008E005A8431905E005A84318294601E048
:100A800005A883188120401A00900C490222029880
:100A900000F034F9002800D057E7002004900498B3
:100AA00025B0F0BD5C3600085036000868360008F6
:100AB000733600087E3600088B360008533600086F
:100AC00055360008F0B503AF8DB00C460168C0463E
:100AD0007944097949008F4401321D24054641CCEF
:100AE000F3686249082202900393083C9847014644
:100AF0000120002921D104902D1DA07A00063FD4A9
:100B0000564901220298039B984700285CD004981C
:100B10000DB0F0BD03CCCB685249072298470DB009
:100B2000F0BD41CCF3684949092205460393083CCE
:100B3000984701460120002908D00DB0F0BD03CC34
:100B4000CB684949042298470DB0F0BD0490A07AC3
:100B500000060AD4414901222C462846039DA84795
:100B6000002819D004980DB0F0BD394902222C4656
:100B70002846039DA847002816D004980DB0F0BD64
:100B8000019533490222029D2846039B984700287D
:100B900025D004980DB0F0BD2E490F222046A8475D
:100BA00000280498C9D139E005A8012101700B90F3
:100BB0000A96099409A827490F2200F0ABFD0028E6
:100BC00024D004980DB0F0BD28462146FFF790FED2
:100BD00000280498B1D125686068C3682FE008A890
:100BE0000121017007900696059521480A9005A8F5
:100BF0000990A068E1680C910B9009A90198FFF792
:100C000077FE002810D004980DB0F0BD09A8124955
:100C1000022200F07FFD002804988ED110490122A5
:100C20002046A8470DB0F0BD0A98C36809980A4944
:100C30000222984700280498039B00D07DE70849CA
:100C40000122284698470DB0F0BDC046E3310008A8
:100C5000EF320008B3310008EC320008EE32000831
:100C60003E320008DC310008D4310008CC310008E5
:100C7000D432000880B500AF03C9CB680149042213
:100C8000984780BDD431000880B500AF00F000F86F
:100C900080B500AF84B06C46204601F04BF9204689
:100CA000FFF7BAFC80B500AF8CB012210191009023
:100CB000002006900220039007490291059008A8A1
:100CC000049006480B9069460A91099001A8089083
:100CD00002A8034900F006F8B03200081D1600080B
:100CE0001832000880B500AF84B001AA0123138137
:100CF00002910190104601F059F9D4D4F0B503AF38
:100D00008BB0694C0A94651C86683540049301D009
:100D10002B2401E01124240406946B0DBC681D19DA
:100D200033020594089219D4002107918489A542C1
:100D30002AD3059E056844680898009028462146F5
:100D4000069A079B00F0B6F8002800D079E0E36827
:100D500028460499324698470BB0F0BD0024002A7B
:100D60000DD00B574022D243934200DD0124089B53
:100D7000012B04D00123CB56934200DD641C079164
:100D800065198489A542D4D2F1010FD40A99314062
:100D90000A91631B7100890F002635467944097951
:100DA00049008F443F013D011D463BE081683F4AB9
:100DB00003910A403E4951188160C168029101685F
:100DC00009904668089800900A9108463146069AAC
:100DD000079B00F06FF801460120002941D10890DF
:100DE000601B002485B2A0B2A84209D2326930212A
:100DF0000A989047641C0028F5D008980BB0F0BD05
:100E0000F3680A980499059A98470028089828D109
:100E10000998039981600299C16000200BB0F0BD70
:100E200099B24D080393016809914468A8B2B1B220
:100E3000814209D2226909980A999047761C0028B4
:100E4000F4D001200BB0F0BD08980090099E304608
:100E50002146069A079B00F02DF801460120002943
:100E600001D00BB0F0BD0890E36830460499059AB4
:100E70009847002802D008980BB0F0BD0398401B9B
:100E8000002685B20796B0B2A84209D22269099815
:100E90000A999047761C0028F5D008980BB0F0BD51
:100EA00007980BB0F0BDC046FFFF1F000000E09F99
:100EB00030000020F0B503AF81B01C460D46112173
:100EC00009048A420AD02B69064611469847014612
:100ED0003046002902D0012001B0F0BD002C05D021
:100EE000BA68EB682146984701B0F0BD002001B018
:100EF000F0BD80B500AF00F001F8D4D480B500AFEC
:100F00008CB00121019100900020069002200390F6
:100F100007490291059008A8049006480B9001A982
:100F20000A9109906846089002A80349FFF7DAFE83
:100F3000F03400081D1600081C350008F0B503AF9A
:100F40008DB016460C91049080680190C000810F0E
:100F500000D1B0E2002832D4102E039652D2002ED7
:100F600000D1E0E10323304618400B90042E00D35B
:100F70002BE200210C460B98002800D1D5E10C9AF9
:100F800052564023DB439A4200DD641C012800D105
:100F9000CBE10C9A511801228A569A4200DD641C5A
:100FA000022800D1C1E102200856984200DCBCE1D1
:100FB000641C04988089844200D2BBE17BE20498DF
:100FC000C089002800D185E10C9DA91900260246A0
:100FD00005E0651C2C1BA619521E00D187E18D422D
:100FE00000D17EE12C460023ED56002DF1D5EDB267
:100FF000E02D03D3F02D03D3251DEBE7A51CE9E776
:10100000E51CE7E70322D3430C983146C61C08933E
:101010001E40331A0793CB1A09930B9213400021F9
:1010200086420A9123D00C98801B0899884200D8E8
:10103000F8E100210A460C98864218D00C98805698
:101040004024E543A84200DD491C079801280ED042
:101050000C98801801228256AA4200DD491C079A8A
:10106000022A04D002228056A84200DD491C002B2F
:101070001ED00998089A0240B21800200A90105613
:101080004024E443A04201DD01200A90012B0FD04F
:1010900001201056A04202DD0A98401C0A90022B43
:1010A00006D002201056A04202DD0A98401C0A9089
:1010B0003346099886080A9840180A90A64913E012
:1010C0000025089E079C361BD318280AA34A154002
:1010D00010404019A24A5043000C0A9A82180A9202
:1010E000099D002D00D00FE1002E00D105E11A4628
:1010F000C02E354600D3C0252B460B9803400993DC
:101100000795AB000896042E0692D9D30593103BA1
:101110001D09681C302B029002D20025164677E08C
:1011200003460B9883430025164670688209C04326
:10113000C0091043084032689409D243D2092243BF
:101140000A4052198018B2689409D243D209224346
:101150000A401018F2689409D243D20922430A4087
:10116000101832699409D243D20922430A40101858
:1011700072699409D243D20922430A401018B26915
:101180009409D243D20922430A401018F269940903
:10119000D243D20922430A401018326A9409D2433A
:1011A000D20922430A401018726A9409D243D20924
:1011B00022430A401018B26A9409D243D20922434A
:1011C0000A401018F26A9409D243D20922430A4015
:1011D0001018326B9409D243D20922430A401018E6
:1011E000726B9409D243D20922430A401018B26BA1
:1011F0009409D243D20922430A401018F26B940991
:10120000D243D20922430A40151840361B1F8CD105
:101210000B98029C0440069A059B00D151E7706828
:101220008209C043C0091043084032689309D24381
:10123000D2091A430A4052198018B2689309D2435E
:10124000D2091A430A401018F2689309D243D2090E
:101250001A430A401518012C39D070698209C0431D
:10126000C0091043084032699309D243D2091A4396
:101270000A4052198018B2699309D243D2091A431D
:101280000A401018F2699309D243D2091A430A405E
:101290001518022C1BD0706A8209C043C009104384
:1012A0000840326A9309D243D2091A430A405219BC
:1012B0008018B26A9309D243D2091A430A4010181F
:1012C000F26A9309D243D2091A430A401518069AC2
:1012D000059BF6E60026841B04988089844229D366
:1012E000E9E0841A04988089844223D3E3E0C41A95
:1012F0000498808984421DD3DDE0039E0A9C0498F3
:101300008089844216D3D6E0FC200440A600069BC8
:1013100098598209C043C00910430840012D00D0EC
:10132000A8E0039EB8E000263446049880898442F1
:1013300000D3C0E00396674A01990A400A92021B53
:101340004800800F002634467844007940008744E6
:101350000B01090B144607E001010101FF00FF002A
:101360000100010090B244080892049801680B91B2
:10137000456801200990A0B2B1B2814209D22A6920
:101380000B980A999047761C0028F4D009980DB064
:10139000F0BDEB680B980C99039A9847002802D08F
:1013A00009980DB0F0BD0898001B002486B20C947B
:1013B000A0B2B04233D22A690B980A999047641CB4
:1013C0000028F5D009980DB0F0BD0C203040002168
:1013D0000C4604E0039E091D884200D1CBE50C9A1F
:1013E00052564025ED43AA4200DD641C0C9A561863
:1013F0000122B256AA4207DC0222B256AA4208DCF7
:10140000F256AA42E6DD08E0641C0222B256AA4265
:10141000F6DD641CF256AA42DCDD641CDAE70C98A7
:101420000DB0F0BD00210A4602E0121D00D102E617
:101430000C9880564025ED43A84200DD491C0C98CD
:10144000801801240457AC4208DC02240457AC4243
:1014500009DC0B9C0057A842E7DD09E0491C022487
:101460000457AC42F5DD491C0B9C0057A842DCDD5B
:10147000491CDAE79B195A689409D243D2092243DE
:101480000A401018022D039E06D09A689309D24391
:10149000D2091A430A4010180A9C010A0C4A10404B
:1014A0001140081809494143080C0419049880891F
:1014B000844200D23EE7049801684068C368084649
:1014C0000C99324698470DB0F0BDC04601000100AE
:1014D000FF00FF00FFFF1F0080B500AF0B4606C8EE
:1014E0001846FFF72BFD80BD80B500AF026840684D
:1014F000C3681046984780BDF0B503AF89B000249B
:101500000894454B05AD0BC51069049000284BD0DD
:10151000506900286CD018214143039107214907E5
:10152000401E8843401C0190946802921568002672
:101530006A68002A06D00698C36829680598984703
:10154000002863D1049880190189002300290BD059
:1015500001291A4603D1C168C90061188A88049913
:10156000895B022905D10CE042890499895B022933
:1015700007D0012904D14168C90061188B8800E0B7
:10158000438805A9CB818A81426907920069C2001C
:10159000A058A21852689047002837D1083518364D
:1015A0000398B042C4D121E0D068002820D09468CC
:1015B000C100651807214907401E8843401C01905F
:1015C000029216687268002A06D00698C3683168CD
:1015D00005989847002819D105CC05A9083C9047E3
:1015E000002813D108360834AC42EBD1029A019C92
:1015F000506884420DD2E0001268115810184268F9
:101600000698C36805989847002802D0012009B0C1
:10161000F0BD002009B0F0BD200000E0F0B503AF40
:1016200089B003910668F0087D2802964BD30A25FD
:101630003046344C214601F07CFB05904443301B7E
:10164000049082B2920830484243530C28465D0011
:101650002E494C5D06AA1218111F0C70D11E2B4C7E
:101660006419054664780C70642159430498401A43
:1016700080B24000254C215C931E197020184078E0
:10168000511E059A08702D1F214886421646CFD854
:10169000092A1CD990B280081B494143490C642097
:1016A0004843101A80B24200184B9C5CA81E2E467C
:1016B00006AD2C54AC19641E9A1852782270029A06
:1016C000002A09D10AE00A253246092AE2D8114641
:1016D0002846029A002A01D0002907D00907C90E1E
:1016E0000A4A51184978401E06AA11540A21091ABB
:1016F000009106A90B18012100220398FFF7FEFABA
:1017000009B0F0BD102700007B140000F132000882
:101710007F969800F0B503AF93B0012306939B1A10
:10172000029302239B1A0193534205930E91491E83
:101730000391016808914168079180680D90002528
:101740002B46294600950A9212E00398015D0A395A
:10175000484248410E99C9180D9B18700798C368F4
:1017600008989847002833460A9A109900D000E15B
:10177000E80700D0FAE08A420F9300D2DCE00E982E
:101780004418501A0728129422D88A4200D1EBE05C
:1017900005980E4641180023E05C0A2850D0CD1869
:1017A000681C00D3C6E0E41860780A284ED0A81C54
:1017B00000D1BFE0A0780A284BD0E81C00D1B9E0E6
:1017C000E0780A2848D01B1DC818129CE4D1B1E06B
:1017D0000C90E61C032004908643321B26D0E34382
:1017E00020469C19331A981E1190D81E1090002381
:1017F0001298C05C0A2800D18DE09C421BD0129840
:10180000C51868780A282AD01198984213D0A87869
:101810000A2826D0109898420DD0E8780A2822D0BD
:101820001B1D1298C05C0A28E7D174E010910C9837
:10183000083811901DE010910C98083811902BE099
:1018400031465818411C90426BD30EE05B1C314668
:1018500062E09B1C31465FE0DB1C31465CE05B1CB8
:1018600059E09B1C57E0DB1C55E091420F9B86D949
:1018700062E030CE41494D403F4B581B284325463E
:101880004D405D1B25433E490D400540083E8D42BD
:1018900004D10836083211988242EAD90C98801A8D
:1018A0000B9046D01298851805988018109940180A
:1018B00009900298801840181190019880184018DB
:1018C0000C90049EAB19D81E00780A281DD01198E0
:1018D000801903282DD03446981E00780A2816D087
:1018E0000C980019032824D0581E00780A2810D01C
:1018F0000B98A0421DD02646285D0A280AD0361D26
:10190000099880190328DDD113E0F61E02E0A61E17
:1019100000E0661EB3180A9A129C5818411C9042A7
:10192000A3D2E05C0A28A0D100250E460C460F9BEE
:1019300007E00A9A11460F9B9A4214461E46069DDE
:1019400014D010910D980078002808D00798C3682B
:10195000042208980B4998470F9B002809D1E21AE6
:1019600000D0F2E60020F5E61146E5E7009813B056
:10197000F0BD069813B0F0BD000101010A0A0A0A81
:1019800080808080D8310008F0B503AF81B070C886
:10199000307800280BD0EB680422204600910949DA
:1019A00098470099002802D0012001B0F0BD0846F8
:1019B0000A384242424132702A692046904701B0BB
:1019C000F0BDC046D831000880B500AF0A4649686E
:1019D000012900D000290249FFF78EFD80BDC046D5
:1019E000D432000880B500AF8EB02B2301930C4B8E
:1019F000009303910290002008900220059009496D
:101A0000049107900AA8069007480D9002A80C9030
:101A100006480B9068460A9004A81146FFF762F941
:101A200088310008C4320008E9140008D9140008FD
:101A300080B500AF8AB028200190094800900020AE
:101A400006900120039007490291059008A8049090
:101A5000054809906846089002A80449FFF742F932
:101A6000F5350008C4310008D914000820360008F4
:101A700080B500AF88B0014600200490012001909D
:101A8000054A0092039006A8029004480790044873
:101A900006906846FFF726F9C4310008D9140008FB
:101AA0007432000880B500AFFEE780B500AF80BD9E
:101AB00080B500AF0846114600F092F9002080BDC5
:101AC00080B500AF82B000200190802903D201A828
:101AD000017001212FE0C80A0AD13F200840803060
:101AE00001AA50708809C02101431170022122E02F
:101AF000080C0ED13F200840803001AA9070080BDE
:101B0000E023034313700805800E803050700321DA
:101B100011E03F220A40803201A8C2708A0CF023F3
:101B2000134303700A05920E803282708903890E76
:101B300080314170042101A800F052F9002002B068
:101B400080BDD4D480B500AF0A464968012900D0D1
:101B500000290249FFF7D0FC80BDC04600350008CF
:101B6000D0B502AF82B0044600F07AF801A8048034
:101B7000022100F035F9FFF798FF02B0D0BDF0B5B3
:101B800003AF83B0029104460020002A11D02569DA
:101B9000E368BFF35F8F0126B1029D4204D9DE43A3
:101BA000AD19002D0BD104E0002D04D0CD1A002D6D
:101BB00005D103B0F0BDDD436D18002DF9D095427D
:101BC00000D31546EE188E4201910DD9C81A009027
:101BD0006068C0180299009A00F046FF00980299C8
:101BE00009182A1A606803E06068C01802992A463A
:101BF00000F03AFF0198401E0640BFF35F8FE66099
:101C0000284603B0F0BDF0B503AF83B016460122FD
:101C10009402A64200D32646C3689D19BFF35F8F86
:101C2000A54202900ED9E21A01924268D0180091A2
:101C3000019A00F019FF019800990918321A0298C8
:101C4000406802E04268D018324600F00DFF601E86
:101C50000540BFF35F8F0298C560304603B0F0BD0A
:101C6000B0B502AF86B000F0ADFE044600F0A6FEAF
:101C70001948017800291FD1012101700A46A243A9
:101C800042708278002A15D1817068460021017067
:101C9000144CE06A03210140022901D0134D00E0F9
:101CA000114D1834694601222046A8470028F9D072
:101CB00001280ED106B0B0BD002004900121019191
:101CC0000649009103900420029068460449FFF7FA
:101CD00009F8FFF70EF9C046E80700204C35000868
:101CE00054350008780600207F1B0008071C0008F8
:101CF000F0B503AF87B0344A1078002857D0D078B9
:101D0000002832D0072810D20021C9438140107921
:101D100008437F21014001A801702C4CE06A032197
:101D2000014002290ED02B4D0DE079308021014376
:101D300001A80170254CE06A0321014002290AD064
:101D4000244D09E0224D183401A901222046A8475C
:101D50000028F9D007E01E4D183401A901222046C1
:101D6000A8470028F9D001281FD101A80026067035
:101D7000164CE06A03210140022901D0154D00E014
:101D8000134D183401A901222046A8470028F9D094
:101D900001280AD10C490E71CE7048780E700128C6
:101DA00001D100F00DFE07B0F0BDFFF7A2F8002052
:101DB00005900121029108490191049004200390AB
:101DC00001A80649FEF78EFFE807002078060020EC
:101DD0007F1B0008071C00088035000888350008B4
:101DE000F0B503AF87B0002900D196E0044646184D
:101DF0004C48C07801960AE0012800D08FE000200E
:101E000048490871C870641CB44200D185E021784B
:101E1000C2B2072A18D200294AD002A8017042484B
:101E2000C06A032101400229404D00D0404D3E4888
:101E3000183002A90122A8470028F8D001286ED145
:101E4000384A1179D0783AE0002951D005A80170BC
:101E50003548C06A0321009108400228334E00D063
:101E6000334E314D183505A901222846B0470028C8
:101E7000F7D0012853D12B49C878401CC870C1B293
:101E80008629019EBFD106A8FF2101702648C06A9D
:101E9000009908400228254E00D0254E06A90122AF
:101EA0002846B0470028F9D0012838D1019EA6E77E
:101EB000012393401B49097919431A4A1171401CA7
:101EC000D070C2B2072A9ED10A069CD003A8017026
:101ED0001548C06A032101400229144D00D0144D59
:101EE0001148183003A90122A8470028F8D083E739
:101EF00079308021014304A801700B48C06A032196
:101F000001400229094D00D0094D0748183004A9A5
:101F10000122A8470028F8D06EE707B0F0BDFEF711
:101F2000E8FFC046E8070020780600207F1B000875
:101F3000071C000880B500AF8AB011490A78BFF3CA
:101F40005F8F002A0AD1BFF35F8F01220A70002140
:101F50000173CA4306C001600AB080BD002005902D
:101F60000120029007490191049007A803900648B8
:101F7000089009A8079001A80449FEF7B3FEC046DF
:101F8000E0070020D4350008911F0008DC35000868
:101F900080B500AF03C9CB6801490922984780BDCD
:101FA000EC35000880B500AF40BF80BD80B500AF04
:101FB0008CB0054600F002FD16480178002926D1B4
:101FC0000124047000951448FFF7CAFD03A81349C3
:101FD00001800221FFF704FF11480290684601903A
:101FE0000020079004940F480390069409A80590D8
:101FF0000D480A9001A809900BA80C4903AAFFF705
:102000007BFA0B482146FFF7EBFEFFF771FE00F06D
:1020100011F8C046D80700200500000002000000AB
:1020200030360008C4310008E91400080035000803
:102030001835000880B500AF00F0C7FCF0B503AF5D
:1020400091B000680268019245680E684C68E368C8
:1020500023490C223046029398470121002821D1C0
:10206000009168680A902868099000200790032072
:1020700004901C49039106900BA805901A481090F3
:1020800029460C310F910E9008350D9517480C908C
:1020900009A80B9003AA30462146FFF72DFA002825
:1020A00003D00099084611B0F0BD11490222304614
:1020B000029B984700280099F4D10BA8019D0ECDF2
:1020C0000EC00ECD0EC00C98012800D000280BAA1F
:1020D00030462146FFF710FA0146084611B0F0BD20
:1020E00058320008403200081D160008D9140008B4
:1020F0006432000880B500AF002101220223826013
:10210000C16003610268011D104600F045F980BD01
:1021100080B500AFFFF7ACFC80B500AF01480249C5
:10212000016080BD0C180240FFFF000080B500AFC9
:1021300000F002F880BDD4D4B0B502AF86B01F481D
:102140000068C10716D1C10616D4C00516D41C48B4
:10215000FFF706FD68461B4901800221FFF740FE9C
:1021600001A8002101700121FFF73AFEFFF7C0FD31
:1021700006B0B0BD002502E0012500E002251048B0
:10218000FFF7EEFC02A80F49018002242146FFF769
:1021900027FE03A801210170FFF722FE04A80A49C7
:1021A00001802146FFF71CFE059505A80421FFF7D5
:1021B00017FEFFF79DFD06B0B0BDC046000002400F
:1021C000600100000400000003000000F0B503AF50
:1021D00083B000F099F8194D2868401C05D1002003
:1021E000286017480169491C01612868401C286063
:1021F00000F0E8FB029000F0E1FBAB68E8680190BA
:102200002E680F4800690021721C48410126029C7B
:102210002640D21A019A904103D2002E0AD003B070
:10222000F0BDC843A860E86005488168C068884779
:10223000002EF4D100F0C4FB03B0F0BDA8060020CE
:10224000E807002081B005480168012211430160C0
:10225000006810400090009801B0704734100240B0
:1022600081B00120000705490A6802430A60096835
:1022700001400091009801B07047C0463C100240F8
:1022800081B00548016801221143016000681040D7
:102290000090009801B070474010024081B00120CA
:1022A000800305490A6802430A60096801400091F9
:1022B000009801B07047C04640100240F0B503AF2F
:1022C00081B00F4E71680124002916D005467D208B
:1022D000C00000F02EFD01460A48006800F029FD0C
:1022E00000F040F8032D08D8002806D10024E04370
:1022F0002946224600F01AF83560204601B0F0BDAC
:10230000B8060020C00600200348406803490A6858
:10231000101808607047C046B8060020FC0700206F
:10232000014800687047C046FC070020002805D41B
:10233000032203469343094A9A1803E00C22024001
:10234000074BD2188007C00E8901C9B28140FF2314
:1023500083401068984308431060704700E400E031
:1023600014ED00E0401E010E01D001207047074926
:10237000074A5060074803680B4003218907591832
:10238000016000209060072111607047FFFFFF008F
:1023900010E000E020ED00E0F0B503AF89B0079059
:1023A0000B68002B00D1A7E05448079C844201D061
:1023B000022000E001200522120700269442009628
:1023C00000D00090324608963446029111E02A432C
:1023D0004B484260049A641C0B681846E040361D66
:1023E00008322546089CA41C08942C46002800D1DD
:1023F00082E001200546A5402B40ECD006940492D3
:10240000059603934E6810233343122B11D11C21E0
:10241000059A11400F238B40069AD2089200079C20
:10242000A218146A9C43029E33698B4023431362B3
:102430007668032332461A4008998A4001938B40FC
:1024400007990C689C43144307990C60079CDB4375
:10245000122E029912D8B0402B4A10420ED0A0681A
:102460001840CA68089CA240079C0243A260300939
:10247000069A90406268AA4302436260E06818408E
:102480008A68089B9A400243E260F000039D059E23
:10249000049A069C9FD51820104022460F248440A1
:1024A000019B9A43164B9A18136EA343009C8440D9
:1024B0001C431466134803684868C20301D52B43C4
:1024C00000E0AB43069C0F4A13605368820301D5BA
:1024D0002B4300E0AB430B4A5360094A1368C20226
:1024E00001D52B4300E0AB43054A136052688002DC
:1024F00000D56CE7AA436BE709B0F0BD00040050BB
:1025000000180240801802400600060042690A4294
:1025100002D0282281507047182281507047F0B5B0
:1025200003AF81B000283AD00446806C002804D163
:1025300000206064204600F035F82420A0640126C5
:1025400075032068C168A943C160204600F02CF8DB
:102550002021605C4006206810D532034369934314
:102560000095656A2B4343619542009D06D1032285
:10257000520343699343A26A1A434261F202036918
:1025800093430361426908239A434261C2682A4324
:10259000C26000202065A164E16401B0F0BD0120AB
:1025A00001B0F0BD7047D4D4F0B503AF81B004469C
:1025B00001214A03006803699343E2681A430261F8
:1025C0002269C368284D1D40A368134362691A43FA
:1025D0002A43C260CD024169A943E66931434161A2
:1025E0000321090242698A43A1691143416100F054
:1025F000D1F90146192048436168AE4216D149001D
:1026000000F097FB05466426314600F092FB0090EF
:10261000174941434819C0003230314600F089FB68
:102620000721014040001F22120113E0890000F041
:1026300080FB05466426314600F07BFB00900B4989
:102640004143481900013230314600F072FB0F213E
:102650000140F02202400098000110184018216843
:10266000886001B0F0BDC046F3E9FFFF9CFFFF0F9B
:102670009CFFFF1FF0B503AF85B014460D46816C7B
:102680000222202913D10126002D0DD00493002C05
:102690000AD001231E038168B1420CD1E9070AD098
:1026A0000169002907D11E46304605B0F0BD164627
:1026B000304605B0F0BD0196416C01291646F3D0B5
:1026C0000026066500934364212181640390FFF78F
:1026D00027FE039B02905C861C86986801998842BD
:1026E00002D1186900281FD02C46588E002820D00F
:1026F0000499481C4C4D42D000295FD1186808E06D
:1027000021784160641C598E491E5986598E0029D2
:1027100010D00168090671D5002CF1D1318829400B
:102720004160B61C0024EEE700242E46588E002897
:10273000DED118681C4648340168002649066BD46F
:10274000049900295AD0491C0CD10168490663D468
:102750000168490660D4016849065DD401684906EC
:10276000F3D559E0FFF7DCFD039B0299411A186885
:10277000049A914242D800684006F3D54CE01868AC
:102780000AE0318829404160B61C0024598E491E58
:102790005986598E0029CDD00168090608D40168F0
:1027A000090605D40168090602D401680906F3D5B3
:1027B000002CE6D021784160641CE7E718680168C6
:1027C000090609D4FFF7ACFD039B0299411A18686A
:1027D000049A9142F3D911E0002C03D02178416092
:1027E000641C04E0318829404160B61C0024598EE5
:1027F000491E5986598E0029E1D19BE70D214901D7
:10280000C2688A43C2604169009A914341612020B5
:1028100098641C464C340326002058642020206015
:10282000304605B0F0BDC046FF010000F0B503AF73
:1028300085B016460446C06C0222202814D101201F
:10284000002900D1A1E00493002E00D19DE00123D6
:102850001D03A068A8420AD1C80708D02069002833
:1028600005D1184605B0F0BD104605B0F0BD606C4E
:102870000128104600D188E00291002001902065D7
:10288000009363642220E064FFF74AFD03906687AB
:102890002687A068A84202D12069002803D0029DA3
:1028A00001990A4602E00025029A0199608F0028EA
:1028B0000846009B66D0364E0498002849D0401C3C
:1028C0002CD0029220680168890608D4FFF728FD01
:1028D0000399411A2068049A9142F4D945E040686E
:1028E000002D02D028706D1C05E030400299088050
:1028F000891C02910025608F401E6087608F002830
:10290000E0D1019908463DE030401080921C00253E
:10291000608F401E6087608F0028F2D020680168B9
:10292000890608D40168890605D40168890602D49D
:1029300001688906F3D54068002DE5D028706D1C2C
:10294000E6E728706D1C608F401E6087608F00284E
:10295000D7D020680168890608D54068002DF0D1DD
:1029600030401080921C0025EDE7009B0D214901AD
:10297000C2688A43C2604169994341612020A064D2
:102980000320019961642021E16405B0F0BDC046D7
:10299000FF0100000648006806490968890A1C22F0
:1029A0000A40054989581F220A40D0407047C04656
:1029B000C0060020081002409436000872B6704726
:1029C00062B67047EFF31080704700DEFEDEF0B5B0
:1029D00003AF042911D30C1F0C2525400C2D12D058
:1029E0000026024640C223079B0F23460DD04660B7
:1029F000042D05D10839083005E00B4602460FE0EA
:102A000086600C390C3002460B460C2C08D3002093
:102A1000106050609060D0601032103B032BF6D8ED
:102A2000D01882421AD203241C40591E002C0BD00D
:102A300000231370012C03D1521C032906D20DE090
:102A40005370022C0BD1921C032907D30021D170A3
:102A5000917051701170121D8242F7D1F0BD9370C8
:102A6000D21C0329F2D2F9E780B500AF00F001F8DB
:102A700080BDF0B503AF8FB0102A15D30B92424240
:102A8000032308931A4085180A90A8422AD2541E9C
:102A9000002A0A9806460B4616D00B780370012AC6
:102AA00007D14B1C461C0FE003469C18A34241D3A0
:102AB00062E04B784370022A02D18B1C861C03E033
:102AC0008B788370CB1CC61C032C0BD31C78347002
:102AD0005C7874709C78B470DC78F4701B1D361DC3
:102AE000AE42F3D10B98801A0B90089CA0432B1890
:102AF0008E1809962640079047D19D420B9A099E51
:102B000011D23146086801C59D420CD2486801C502
:102B10009D4208D2886801C59D4204D2C86801C59B
:102B200010319D42EED32240079831180A989C1824
:102B3000A34221D203251540521E002D0ED00E783F
:102B40001E70012D04D1491C5B1C032A08D213E01E
:102B50004E785E70022D11D1891C9B1C032A0BD369
:102B60000A781A704A785A708A789A70CA78DA7035
:102B7000091D1B1DA342F3D10FB0F0BD8D789D70D0
:102B8000C91CDB1C032AEBD2F6E7002406940E9442
:102B90000EACA41905940424A41B0494E407009625
:102BA00006D0099C2478059E3470009E012406946A
:102BB000049CA40708D5099C0492069AA45A059E71
:102BC000069AB452049A009EF40003940E9C069454
:102BD0002C1D9C4236D2744209190591039D69420D
:102BE00018240C4002940A9904912946069CCC4072
:102BF000069405998918019149680C46029DAC40DC
:102C0000069D2C43049DAC50AD182C4608349C42C4
:102C10001CD2039CE140019CA46806940195029D8E
:102C2000AC400C4301994C600499083104918D1813
:102C3000291D059C0834059499420399D6D305981B
:102C4000801801E00998801B059004E00198001DA0
:102C500005902D1D06910DA80021049001700CA86F
:102C60000170012E0E460C4602910B9A09D0059C6C
:102C7000607926790DAC26700402022002900CA81F
:102C800004900998C0070AD00598001D0299405C7D
:102C9000049908700DA806780CA800780104059620
:102CA0000398404204901826049806400C43059966
:102CB0000C43B44006990398C14021432960089C05
:102CC000099E30E7F0B503AF81B0042A2DD3131F5E
:102CD0000C251D400C2D19D000920E4604C9044647
:102CE00004C01A07920F1A4610D03146726862600B
:102CF000042D04D1009A083A0831083405E08A68A6
:102D0000A260009A0C3A0C310C3420460C2B0CD3E8
:102D10000B6803604B6843608B688360CB68C3605B
:102D200010311030103A032AF2D8FFF7A2FE01B09A
:102D3000F0BD80B500AF00F001F880BDF0B503AF85
:102D400083B00246884203D20020114603B0F0BD92
:102D5000130C01250024994228462ED802901646CD
:102D60002FD9300A814230D9284631D80190300914
:102D7000814232D92B4633D8B008814234D9284613
:102D800035D87608B1422E4600D92646400000903C
:102D90009B00029804010198C0000019C018009B14
:102DA000C01883199D400C469C40161B8E4224D2AD
:102DB00032462846114603B0F0BD20460290164622
:102DC000CFD81E46300A8142CED806462846CDD9F5
:102DD0002046019030098142CCD806462B46CBD9FB
:102DE0002346B0088142CAD806462846C9D920469B
:102DF0007608B1422E46C8D8C8E7002C03D429462D
:102E0000284632461AE05B1E1F20184001228240ED
:102E10000292640800200190321B002A06DB02980F
:102E200007DB28438A4202998FD307E03246029893
:102E3000F7DA019828438A42029986D3491E002B6B
:102E40000BD003261E400AD055002A1B521C00D46A
:102E50001546012E06D15A1E13E0154613E01546FD
:102E60001A460EE06D002A1B521C00D41546022E95
:102E700001D19A1E05E06D002A1B521C00D4154694
:102E8000DA1E042B0AD21F2213402A46DA402940B8
:102E90000843114603B0F0BD121FF4D06D002E1B85
:102EA000761C0CD56D002E1B761C0DD56D002E1BCF
:102EB000761C0ED56D002E1B761CEDD40EE035462B
:102EC0006D002E1B761CF1D435466D002E1B761C32
:102ED000F0D435466D002E1B761CDDD43546DBE77D
:102EE00070460421084202D1EFF3088002E0EFF3BC
:102EF0000980FFE780B500AF01491820ABBEFCE7B1
:042F000023000200A8
:102F0400756E77726170206F66206073656C662ED3
:102F1400737061776E28746F6B656E2960206661CB
:102F2400696C65643A200000042F00082600000044
:102F34002F686F6D652F63657267616E2F2E6361F5
:102F440072676F2F72656769737472792F73726316
:102F54002F696E6465782E6372617465732E696F70
:102F64002D31393439636638633662356235353725
:102F7400662F6465666D742D7274742D302E342E34
:102F8400322F7372632F6C69622E7273002F686F15
:102F94006D652F63657267616E2F6769746875620A
:102FA4005F70726A2F707933322D62696E642D6896
:102FB400616C2F7372632F6373646B5F68616C2E33
:102FC4007273007372632F6D61696E2E7273002FBA
:102FD400686F6D652F63657267616E2F2E63617212
:102FE400676F2F72656769737472792F7372632FB9
:102FF400696E6465782E6372617465732E696F2DD2
:10300400313934396366386336623562353537664B
:103014002F6465666D742D7274742D302E342E32C7
:103024002F7372632F6368616E6E656C2E7273000A
:103034002F686F6D652F63657267616E2F2E6361F4
:1030440072676F2F72656769737472792F73726315
:103054002F696E6465782E6372617465732E696F6F
:103064002D31393439636638633662356235353724
:10307400662F656D62617373792D65786563757408
:103084006F722D302E362E332F7372632F7370614F
:10309400776E65722E7273002F686F6D652F63658E
:1030A4007267616E2F2E636172676F2F7265676935
:1030B400737472792F7372632F696E6465782E63EB
:1030C40072617465732E696F2D31393439636638D2
:1030D4006336623562353537662F656D62617373A9
:1030E400792D74696D652D302E332E322F737263F2
:1030F4002F696E7374616E742E7273002F686F6D16
:10310400652F63657267616E2F2E636172676F2F1F
:1031140072656769737472792F7372632F696E6451
:1031240065782E6372617465732E696F2D3139343D
:10313400396366386336623562353537662F656DB7
:1031440062617373792D6578656375746F722D3060
:103154002E362E332F7372632F7261772F6D6F6447
:103164002E727300343000086700000080000000F5
:103174000900000000000000080000000400000036
:10318400C50A000863616C6C6564206052657375E0
:103194006C743A3A756E77726170282960206F6E8C
:1031A40020616E2060457272602076616C7565499D
:1031B4006E76616C6964496E7374616E6365000058
:1031C400010000000000000048616C4572726F72DB
:1031D400427573792020202054696D656F7574558C
:1031E400736572496E707574C72F00080B00000078
:1031F4002C0000003D00000052657374617274215C
:103204000A000000C72F00080B0000003100000076
:1032140028000000C72F00080B0000004200000037
:1032240011000000556E65787065637465642055FF
:1032340054462D3820646174612E293A010000003F
:10324400000000003F320008010000003F32000887
:103254000100000070616E69636B65642061742015
:103264003A0A6578706C696369742070616E696389
:10327400663200080E000000696E646578206F7580
:1032840074206F6620626F756E64733A207468658B
:10329400206C656E206973202062757420746865E3
:1032A40020696E6465782069732000007C32000810
:1032B400200000009C320008120000003A200000A8
:1032C4000100000000000000C032000802000000FD
:1032D400000000000C0000000400000015170008A6
:1032E40089190008C91900082C0A28280A30303026
:1032F40031303230333034303530363037303830A6
:103304003931303131313231333134313531363193
:103314003731383139323032313232323332343279
:10332400353236323732383239333033313332335F
:103334003333343335333633373338333934303445
:103344003134323433343434353436343734383435
:103354003935303531353235333534353535363523
:103364003735383539363036313632363336343609
:1033740035363636373638363937303731373237EF
:1033840033373437353736373737383739383038D5
:1033940031383238333834383538363837383838C5
:1033A40039393039313932393339343935393639B3
:1033B40037393839390101010101010101010101E4
:1033C40001010101010101010101010101010101E9
:1033D40001010101010101010101010101010101D9
:1033E40001010101010101010101010101010101C9
:1033F40001010101010101010101010101010101B9
:1034040001010101010101010101010101010101A8
:103414000101010101010101010101010101010198
:103424000101010101010101010101010101010188
:103434000101010101000000000000000000000083
:103444000000000000000000000000000000000078
:103454000000000000000000000000000000000068
:103464000000000000000000000000000000000058
:103474000000000000000002020202020202020236
:103484000202020202020202020202020202020218
:1034940002020202020303030303030303030303FD
:1034A40003030303030404040404000000000000F5
:1034B400000000000072616E6765207374617274AD
:1034C40020696E64657820206F7574206F662072A1
:1034D400616E676520666F7220736C696365206F27
:1034E40066206C656E67746820000000B9340008BB
:1034F40012000000CB34000822000000000000008D
:103504000000000001000000B11A0008C11A000800
:10351400451B0008FF000000D32F000860000000D6
:10352400260000001F0000006465666D74206C6F47
:10353400676765722074616B656E207265656E7471
:1035440072616E746C7900002C3500081E00000056
:10355400342F00085C0000008B0000000D00000008
:103564006465666D742072656C65617365206F7542
:1035740074206F6620636F6E746578746435000818
:103584001C000000342F00085C000000C000000094
:103594000D000000756E77726170206F66206065A3
:1035A4006D62617373795F74696D655F6472697666
:1035B40065723A3A616C6C6F636174655F616C61EA
:1035C400726D282960206661696C65643A20000088
:1035D400983500083A000000003100086700000038
:1035E400490100001E0000004E6F6E654572726F47
:1035F400726F766572666C6F77207768656E20618E
:103604006464696E67206475726174696F6E207496
:103614006F20696E7374616E740000009C30000842
:10362400630000007C0000000E00000000000000A9
:1036340004000000040000003D200008912F000851
:10364400350000001D0000000E000000207C20302A
:103654007828656D707479295041524954595F45F1
:1036640052524F524E4F4953455F4552524F524664
:1036740052414D455F4552524F524F564552525555
:103684004E5F4552524F52444D415F4552524F5244
:103694000000000000000000000000000000000026
:1036A400010000000200000003000000040000000C
:1036B8006465666D740000005345474745522052C3
:1036C8005454000000000000010000000000000049
:1036D8007006002000080020000400000000000020
:1036E80000000000010000000100000000000000D0
:1036F800FFFFFFFFFFFFFFFF0400000001000000C5
:0437080000127A0031
:04000005080000C12E
:00000001FF
